{
  "contractName": "Todolist",
  "abi": [
    {
      "inputs": [],
      "stateMutability": "nonpayable",
      "type": "constructor"
    },
    {
      "anonymous": false,
      "inputs": [
        {
          "indexed": false,
          "internalType": "uint256",
          "name": "id",
          "type": "uint256"
        },
        {
          "indexed": false,
          "internalType": "bool",
          "name": "completed",
          "type": "bool"
        }
      ],
      "name": "TaskCompleted",
      "type": "event"
    },
    {
      "anonymous": false,
      "inputs": [
        {
          "indexed": false,
          "internalType": "uint256",
          "name": "id",
          "type": "uint256"
        },
        {
          "indexed": false,
          "internalType": "string",
          "name": "content",
          "type": "string"
        },
        {
          "indexed": false,
          "internalType": "bool",
          "name": "completed",
          "type": "bool"
        }
      ],
      "name": "TaskCreated",
      "type": "event"
    },
    {
      "inputs": [
        {
          "internalType": "address",
          "name": "",
          "type": "address"
        },
        {
          "internalType": "uint256",
          "name": "",
          "type": "uint256"
        }
      ],
      "name": "tasks",
      "outputs": [
        {
          "internalType": "uint256",
          "name": "id",
          "type": "uint256"
        },
        {
          "internalType": "string",
          "name": "content",
          "type": "string"
        },
        {
          "internalType": "bool",
          "name": "completed",
          "type": "bool"
        }
      ],
      "stateMutability": "view",
      "type": "function"
    },
    {
      "inputs": [
        {
          "internalType": "address",
          "name": "",
          "type": "address"
        }
      ],
      "name": "tasksCount",
      "outputs": [
        {
          "internalType": "uint256",
          "name": "",
          "type": "uint256"
        }
      ],
      "stateMutability": "view",
      "type": "function"
    },
    {
      "inputs": [
        {
          "internalType": "string",
          "name": "_content",
          "type": "string"
        }
      ],
      "name": "createTask",
      "outputs": [],
      "stateMutability": "nonpayable",
      "type": "function"
    },
    {
      "inputs": [
        {
          "internalType": "uint256",
          "name": "_id",
          "type": "uint256"
        }
      ],
      "name": "toggleCompleted",
      "outputs": [],
      "stateMutability": "nonpayable",
      "type": "function"
    }
  ],
  "bytecode": "0x608060405234801561001057600080fd5b506040805180820190915260018152601760f91b602082015261003290610037565b61026e565b3360008181526001602081815260408084205481516060810183528181528084018881528184018790529686528584528286208287528452919094208151815594518051949591949193610091939085019291019061010c565b50604091820151600291909101805460ff1916911515919091179055517f05d0fb833127fc08168556d0e7ca9554fc3f6bc843b3b7d2bf1c35aea6bab660906100e090839085906000906101a5565b60405180910390a13360009081526001602052604081208054916101038361020a565b91905055505050565b82805461011890610233565b90600052602060002090601f01602090048101928261013a5760008555610180565b82601f1061015357805160ff1916838001178555610180565b82800160010185558215610180579182015b82811115610180578251825591602001919060010190610165565b5061018c929150610190565b5090565b5b8082111561018c5760008155600101610191565b83815260006020606081840152845180606085015260005b818110156101d9578681018301518582016080015282016101bd565b818111156101eb576000608083870101525b5093151560408401525050601f91909101601f19160160800192915050565b600060001982141561022c57634e487b7160e01b600052601160045260246000fd5b5060010190565b600181811c9082168061024757607f821691505b6020821081141561026857634e487b7160e01b600052602260045260246000fd5b50919050565b6106a78061027d6000396000f3fe608060405234801561001057600080fd5b506004361061004c5760003560e01c8063111002aa14610051578063455f5024146100665780637149d2e4146100795780637b219c39146100a4575b600080fd5b61006461005f366004610476565b6100d2565b005b610064610074366004610527565b6101a7565b61008c61008736600461055c565b610311565b60405161009b93929190610586565b60405180910390f35b6100c46100b23660046105eb565b60016020526000908152604090205481565b60405190815260200161009b565b336000818152600160208181526040808420548151606081018352818152808401888152818401879052968652858452828620828752845291909420815181559451805194959194919361012c93908501929101906103c7565b50604091820151600291909101805460ff1916911515919091179055517f05d0fb833127fc08168556d0e7ca9554fc3f6bc843b3b7d2bf1c35aea6bab6609061017b9083908590600090610586565b60405180910390a133600090815260016020526040812080549161019e8361060d565b91905055505050565b3360009081526020818152604080832084845282528083208151606081019092528054825260018101805492939192918401916101e390610636565b80601f016020809104026020016040519081016040528092919081815260200182805461020f90610636565b801561025c5780601f106102315761010080835404028352916020019161025c565b820191906000526020600020905b81548152906001019060200180831161023f57829003601f168201915b50505091835250506002919091015460ff1615156020918201526040808301805115905233600090815280835281812086825283522082518155828201518051939450849391926102b5926001850192909101906103c7565b50604091820151600291909101805460ff191691151591909117905581810151815184815290151560208201527fe21fa966ca5cd02748c0752352d18c48165e61cb55b4c29cccf924b5a95fcff1910160405180910390a15050565b60006020818152928152604080822090935290815220805460018201805491929161033b90610636565b80601f016020809104026020016040519081016040528092919081815260200182805461036790610636565b80156103b45780601f10610389576101008083540402835291602001916103b4565b820191906000526020600020905b81548152906001019060200180831161039757829003601f168201915b5050506002909301549192505060ff1683565b8280546103d390610636565b90600052602060002090601f0160209004810192826103f5576000855561043b565b82601f1061040e57805160ff191683800117855561043b565b8280016001018555821561043b579182015b8281111561043b578251825591602001919060010190610420565b5061044792915061044b565b5090565b5b80821115610447576000815560010161044c565b634e487b7160e01b600052604160045260246000fd5b60006020828403121561048857600080fd5b813567ffffffffffffffff808211156104a057600080fd5b818401915084601f8301126104b457600080fd5b8135818111156104c6576104c6610460565b604051601f8201601f19908116603f011681019083821181831017156104ee576104ee610460565b8160405282815287602084870101111561050757600080fd5b826020860160208301376000928101602001929092525095945050505050565b60006020828403121561053957600080fd5b5035919050565b80356001600160a01b038116811461055757600080fd5b919050565b6000806040838503121561056f57600080fd5b61057883610540565b946020939093013593505050565b83815260006020606081840152845180606085015260005b818110156105ba5786810183015185820160800152820161059e565b818111156105cc576000608083870101525b5093151560408401525050601f91909101601f19160160800192915050565b6000602082840312156105fd57600080fd5b61060682610540565b9392505050565b600060001982141561062f57634e487b7160e01b600052601160045260246000fd5b5060010190565b600181811c9082168061064a57607f821691505b6020821081141561066b57634e487b7160e01b600052602260045260246000fd5b5091905056fea264697066735822122066f1066d15e4834749af31a2119a50cdfc1a3a9281f5c048fef99e7d8e43da8564736f6c634300080b0033",
  "immutableReferences": {},
  "source": "// SPDX-License-Identifier: MIT\r\npragma solidity >=0.4.22 <0.9.0;\r\n\r\ncontract Todolist {\r\n    struct Task {\r\n        uint id;\r\n        string content;\r\n        bool completed;\r\n    }\r\n\r\n    event TaskCreated (\r\n        uint id,\r\n        string content,\r\n        bool completed\r\n    );\r\n\r\n    event TaskCompleted (\r\n        uint id,\r\n        bool completed\r\n    );\r\n\r\n    mapping(address => mapping(uint => Task)) public tasks;\r\n    mapping(address => uint) public tasksCount;\r\n\r\n    constructor() {\r\n        createTask(\".\");\r\n    }\r\n\r\n    function createTask(string memory _content) public {\r\n        uint taskCount = tasksCount[msg.sender];\r\n        tasks[msg.sender][taskCount] = Task(taskCount, _content, false);\r\n        emit TaskCreated(taskCount, _content, false);\r\n        tasksCount[msg.sender]++;\r\n    }\r\n    function toggleCompleted(uint _id) public {\r\n        Task memory task = tasks[msg.sender][_id];\r\n        task.completed = !task.completed;\r\n        tasks[msg.sender][_id] = task;\r\n        emit TaskCompleted(_id, task.completed);\r\n    } \r\n\r\n}",
  "sourcePath": "D:\\to-do-list\\to-do-list\\contracts\\Todolist.sol",
  "compiler": {
    "name": "solc",
    "version": "0.8.11+commit.d7f03943.Emscripten.clang"
  },
  "schemaVersion": "3.4.6",
  "updatedAt": "2022-07-12T05:03:39.308Z",
  "devdoc": {
    "kind": "dev",
    "methods": {},
    "version": 1
  },
  "userdoc": {
    "kind": "user",
    "methods": {},
    "version": 1
  }
}